:100000000C945E000C9486000C9486000C94860080
:100010000C9486000C9486000C9486000C94B90213
:100020000C9486000C9486000C9486000C94860038
:100030000C9486000C9486000C9486000C94860028
:100040000C946D030C9486000C943B030C941503E4
:100050000C9486000C9486000C9486000C94860008
:100060000C9486000C9486000000000024002700F9
:100070002A0000000000250028002B0004040404CE
:100080000404040402020202020203030303030342
:10009000010204081020408001020408102001021F
:1000A00004081020000000080002010000030407FB
:1000B00000000000000000000200B70311241FBE72
:1000C000CFEFD8E0DEBFCDBF12E0A0E0B1E0E2E3C9
:1000D000F4E102C005900D92A638B107D9F723E0EC
:1000E000A6E8B2E001C01D92A139B207E1F710E025
:1000F000CEE5D0E004C02197FE010E94AA08CD35CC
:10010000D107C9F70E94F6030C94170A0C9400005B
:1001100090910001981324C0E8EBF0E0E4919FEF88
:1001200090930001E130B9F098F0E230C9F4909179
:1001300070009D7F9093700091E09093B00090913B
:10014000B100987F94609093B1001092B30008C002
:1001500010926E0005C090916F009D7F90936F008C
:1001600090E0FC01EC55FF4F2491FC01E057FF4F5C
:100170003491FC01E458FF4FE491EE23B9F12223BE
:1001800039F1233091F038F42130A9F0223001F513
:1001900084B58F7D12C0273091F02830A1F0243033
:1001A000B9F4809180008F7D03C0809180008F77AB
:1001B000809380000DC084B58F7784BD09C0809185
:1001C000B0008F7703C08091B0008F7D8093B00026
:1001D000F0E0EE0FFF1FEE58FF4FA591B4918FB7DF
:1001E000F894EC9130953E233C938FBF0895CF92C5
:1001F000DF92EF92FF920F931F93CF93DF936C01E7
:100200007A018B01C0E0D0E0CE15DF0589F0D8017E
:100210006D918D01D601ED91FC910190F081E02D61
:10022000C6010995892B11F47E0102C02196ECCFFD
:10023000C701DF91CF911F910F91FF90EF90DF9059
:10024000CF900895FC01918D828D981761F0828D79
:10025000DF01A80FB11D5D968C91928D9F5F9F73FA
:10026000928F90E008958FEF9FEF0895FC01918D9C
:10027000828D981731F0828DE80FF11D858D90E009
:1002800008958FEF9FEF0895FC01918D228D892FA6
:1002900090E0805C9F4F821B91098F73992708958E
:1002A0008CEA92E00E94440121E0892B09F420E0CD
:1002B000822F0895FC01848DDF01A80FB11DA35A80
:1002C000BF4F2C91848D90E001968F739927848F76
:1002D000A689B7892C93A089B1898C9180648C936D
:1002E000938D848D981306C00288F389E02D808158
:1002F0008F7D80830895EF92FF920F931F93CF938A
:10030000DF93EC0181E0888F9B8D8C8D981305C065
:10031000E889F989808185FD24C0F62E0B8D10E0D7
:100320000F5F1F4F0F731127E02E8C8DE8120CC04A
:100330000FB607FCFACFE889F989808185FFF5CFF0
:10034000CE010E945A01F1CF8B8DFE01E80FF11D05
:10035000E35AFF4FF0820B8FEA89FB89808180622C
:1003600007C0EE89FF896083E889F989808180640C
:10037000808381E090E0DF91CF911F910F91FF90FA
:10038000EF900895CF93DF93EC01888D8823C9F017
:10039000EA89FB89808185FD05C0A889B9898C918E
:1003A00086FD0FC00FB607FCF5CF808185FFF2CF29
:1003B000A889B9898C9185FFEDCFCE010E945A01A1
:1003C000E7CFDF91CF91089580E090E0892B29F06D
:1003D0000E94500181110C94000008953FB7F894D9
:1003E00080918B0290918C02A0918D02B0918E022F
:1003F00026B5A89B05C02F3F19F00196A11DB11D80
:100400003FBFBA2FA92F982F8827820F911DA11DBA
:10041000B11DBC01CD0142E0660F771F881F991FF7
:100420004A95D1F708958F929F92AF92BF92CF9243
:10043000DF92EF92FF926B017C010E94EE014B0173
:100440005C01C114D104E104F104F1F00E94EE0159
:10045000DC01CB0188199909AA09BB09883E9340A0
:10046000A105B10570F321E0C21AD108E108F10835
:1004700088EE880E83E0981EA11CB11CC114D10423
:10048000E104F10419F7DDCFFF90EF90DF90CF90FA
:10049000BF90AF909F908F9008952FB7F894609180
:1004A0008702709188028091890290918A022FBF01
:1004B00008950E94E6086115710579F0FB0101902D
:1004C0000020E9F73197AF01461B570BDC01ED9196
:1004D000FC910280F381E02D099480E090E0089582
:1004E0004F925F926F927F92EF92FF920F931F93C2
:1004F000CF93DF93CDB7DEB7A1970FB6F894DEBFE9
:100500000FBECDBF7C01FA01CB0119A2223008F445
:100510002AE08E010F5D1F4F422E512C612C712C51
:10052000BF01A30192010E94E609F901CA0101502D
:1005300011096A3014F4605D01C0695CD8016C93E4
:10054000232B242B252B61F7B801C7010E945B02E6
:10055000A1960FB6F894DEBF0FBECDBFDF91CF914D
:100560001F910F91FF90EF907F906F905F904F9051
:1005700008951F920F920FB60F9211242F933F935D
:100580004F935F936F937F938F939F93AF93BF939B
:10059000EF93FF938091A8029091A902A091AA02E3
:1005A000B091AB02892B8A2B8B2B51F18091A70242
:1005B000E091A502F091A602908189278083809125
:1005C000A8029091A902A091AA02B091AB021816BC
:1005D00019061A061B06C4F48091A8029091A9027C
:1005E000A091AA02B091AB020197A109B109809331
:1005F000A8029093A902A093AA02B093AB0204C0F0
:10060000809100010E948800FF91EF91BF91AF910E
:100610009F918F917F916F915F914F913F912F911A
:100620000F900FBE0F901F9018951F920F920FB64C
:100630000F9211242F933F934F935F936F937F9368
:100640008F939F93AF93BF93EF93FF938CEA92E0C6
:100650000E945A01FF91EF91BF91AF919F918F91AD
:100660007F916F915F914F913F912F910F900FBEAE
:100670000F901F9018951F920F920FB60F92112492
:100680002F938F939F93EF93FF93E091BC02F09190
:10069000BD028081E091C202F091C30282FD12C0CE
:1006A00090818091C5028F5F8F732091C60282175F
:1006B00051F0E091C502F0E0E455FD4F958F809335
:1006C000C50201C08081FF91EF919F918F912F9181
:1006D0000F900FBE0F901F9018951F920F920FB69C
:1006E0000F9211242F933F938F939F93AF93BF93B8
:1006F0008091870290918802A0918902B0918A022C
:100700003091860223E0230F2D3720F40196A11D9E
:10071000B11D05C026E8230F0296A11DB11D20932F
:1007200086028093870290938802A0938902B093F7
:100730008A0280918B0290918C02A0918D02B091DF
:100740008E020196A11DB11D80938B0290938C02A5
:10075000A0938D02B0938E02BF91AF919F918F9124
:100760003F912F910F900FBE0F901F901895ECEABC
:10077000F2E01382128288EE93E0A0E0B0E084837E
:100780009583A683B78383E592E09183808385EC8C
:1007900090E09587848784EC90E09787868780EC4B
:1007A00090E0918B808B81EC90E0938B828B82EC3C
:1007B00090E0958B848B86EC90E0978B868B118EE6
:1007C000128E138E148EE9E4F3E0168217821086DF
:1007D0001186128613861486158616861786108A49
:1007E000118A128A138A148A158A0895CF93DF9387
:1007F000CDB7DEB729970FB6F894DEBF0FBECDBFD9
:10080000789484B5826084BD84B5816084BD85B5EB
:10081000826085BD85B5816085BD80916E008160F7
:1008200080936E001092810080918100826080939D
:10083000810080918100816080938100809180009F
:100840008160809380008091B10084608093B100CA
:100850008091B00081608093B00080917A008460C4
:1008600080937A0080917A00826080937A008091F0
:100870007A00816080937A0080917A00806880930A
:100880007A001092C10010928D0310928E03109284
:100890008F031092900310924B0310924C0310920E
:1008A0004D0310924E0360ED77E080E090E00E94EF
:1008B00013028CEA92E090938C0380938B03E09177
:1008C000BC02F091BD0282E08083E091B802F09119
:1008D000B9021082E091BA02F091BB0280E18083FC
:1008E0001092C402E091C002F091C10286E08083C0
:1008F000E091BE02F091BF02808180618083E0912F
:10090000BE02F091BF02808188608083E091BE02C8
:10091000F091BF02808180688083E091BE02F091F7
:10092000BF0280818F7D80830E944D0260934B03C4
:1009300070934C0380934D0390934E036FE572E0E8
:1009400080918B0390918C030E945B026AE070E0BF
:1009500080E090E00E94130281E080935F030E9498
:100960004D02672B682B692B41F40E944D026230C7
:1009700071058105910508F40EC10E944D02609336
:10098000A1027093A2028093A3029093A40200910B
:100990009D0210919E0220919F023091A00260174B
:1009A00071078207930740F460939D0270939E0243
:1009B00080939F029093A00200919D0210919E024D
:1009C00020919F023091A0026B017C01C01AD10AD4
:1009D000E20AF30A970186010A3F11052105310554
:1009E00008F4D9C060939D0270939E0280939F0289
:1009F0009093A00224EF31E040E050E020935703B1
:100A0000309358034093590350935A0310925B0359
:100A100010925C0310925D0310925E0380914F036D
:100A200090915003A0915103B091520380935303CE
:100A300090935403A0935503B09356030E944D0224
:100A400060934F037093500380935103909352032C
:100A50000E944D0260934B0370934C0380934D03AF
:100A600090934E030E944D026B017C0161E772E09E
:100A700080918B0390918C030E945B022AE041E0FD
:100A800050E060E070E080918B0390918C030E94B5
:100A9000700268E772E080918B0390918C030E9452
:100AA0005B022AE0B701A60180918B0390918C0331
:100AB0000E9470026AE772E080918B0390918C0330
:100AC0000E945B0280914F0390915003A0915103CB
:100AD000B0915203B701A601481B590B6A0B7B0B5F
:100AE0002AE080918B0390918C030E9470026AE748
:100AF00072E080918B0390918C030E945B02409185
:100B00004F035091500360915103709152038091B3
:100B1000530390915403A0915503B0915603481B81
:100B2000590B6A0B7B0B2AE080918B0390918C030D
:100B30000E9470026CE772E080918B0390918C03AD
:100B40000E945B020E944D02AB01BC012AE0809131
:100B50008B0390918C030E94700200918B03109183
:100B60008C036EE772E0C8010E945B026EE672E0E1
:100B7000C8010E945B0262E070E080E090E00E94A9
:100B800013020E944D0260934F03709350038093B1
:100B900051039093520347EA51E05A83498381E01D
:100BA00091E098878F83A981BA816D917D91BA83F5
:100BB000A98388EE93E00E945C088B01EF81F885A1
:100BC00021903190F887EF83809100016B01770FBE
:100BD000EE08FF08CB82DC82ED82FE82833029F4AE
:100BE000E8EBF0E0F491F9877BC08F3F09F0E1C1B9
:100BF00083E080930001E8EBF0E084918F3F09F4FB
:100C0000D8C1813019F1823009F444C0811167C024
:100C100014BC15BC84B5826084BD85B5816085BD7A
:100C2000EFE7F0E08491E82FF0E0EE0FFF1FEE58C1
:100C3000FF4F859194919093940280939302E3E9FE
:100C4000F0E084918093920219864DC0109280004A
:100C50001092810080918100886080938100809152
:100C60008100816080938100EFE7F0E08491E82FBC
:100C7000F0E0EE0FFF1FEE58FF4F85919491909397
:100C8000910280939002E3E9F0E0849180938F02D7
:100C9000F1E023C01092B0001092B1008091B0003A
:100CA00082608093B0008091B10081608093B10038
:100CB000EFE7F0E08491E82FF0E0EE0FFF1FEE5831
:100CC000FF4F859194919093A6028093A502E3E94A
:100CD000F0E084918093A702F2E0F98704C089874D
:100CE000C984C7FC66C1E3E9F0E04491EFE7F0E0B6
:100CF0008491882399F090E0880F991FFC01E859AE
:100D0000FF4FA591B491FC01EE58FF4F259134910E
:100D10008FB7F8949C91492B4C938FBF4101A12C24
:100D2000B12C89858D7F09F0B9C060E072E18AE756
:100D300090E0A50194010E94700829013A0169011F
:100D40007A01F1E0CF1AD108E108F1082FEFC216BD
:100D5000D104E104F10409F008F44DC060E472E448
:100D60008FE090E0A50194010E94700869017A016A
:100D700081E0C81AD108E108F1089985923001F59F
:100D8000AFEFCA16D104E104F10409F008F492C1EE
:100D900060E970ED83E090E0A50194010E94700885
:100DA00069017A01B1E0CB1AD108E108F108EFEF4F
:100DB000CE16D104E104F10409F0D0F583E067C058
:100DC000FFEFCF16D104E104F104B9F0B0F068E40C
:100DD00078EE81E090E0A50194010E94700869011D
:100DE0007A0181E0C81AD108E108F10899859923B0
:100DF00009F407C156C181E001C082E029852223A0
:100E000091F045C0D301C2012AE0B595A795979509
:100E100087952A95D1F76C017D0121E0C21AD1088E
:100E2000E108F10885E095B5987F892B85BD72C0F2
:100E300068E478EE81E090E0A50194010E947008DA
:100E400069017A01F1E0CF1AD108E108F1082FEF2A
:100E5000C216D104E104F10409F008F4D0C064E240
:100E600074EF80E090E0A50194010E947008690190
:100E70007A01A1E0CA1AD108E108F108BFEFCB1648
:100E8000D104E104F10411F008F0DDC085E0909197
:100E9000B100987F892B8093B1003CC060E072E183
:100EA0008AE790E0A50194010E94700869017A0127
:100EB00081E0C81AD108E108F108C114D10491E019
:100EC000E906F10488F068E478EE81E090E0A5019D
:100ED00094010E94700869017A01A1E0CA1AD10840
:100EE000E108F10893E001C091E0B985B13091F4D7
:100EF00080918100887F892B809381002B813C81A8
:100F00004D815E81232B242B252B61F42FEF3FEFA6
:100F1000A9012EC08B819C81AD81BE81892B8A2B3A
:100F20008B2B69F09101220F331FD8010E948F088B
:100F300028EE33E040E050E00E94E60903C02FEFC6
:100F40003FEFA9019985913099F0923019F19111F3
:100F500030C0C7BC2093990230939A0240939B0201
:100F600050939C0280916E00826080936E0021C03D
:100F7000D0928900C0928800209395023093960207
:100F8000409397025093980280916F008260809303
:100F90006F000FC0C092B3002093A8023093A90243
:100FA0004093AA025093AB028091700082608093BC
:100FB00070006B817C818D819E810E94ED0826E608
:100FC00036E646EA5FE30E9428090E94B008072E31
:100FD000000C880B990B0E94130283E00E9488008A
:100FE000A981BA81AF54B24009F0DDCD68EB7BE056
:100FF00080E090E00E9413020E94E401B0CC84E003
:1010000046CFAFEFCA16D104E104F104D1F0C8F025
:1010100062E17AE780E090E0A50194010E94700807
:1010200069017A0181E0C81AD108E108F1089FEF4F
:10103000C916D104E104F10411F008F0E3CE84E014
:10104000F2CE83E0F0CE62E17AE780E090E0A501A5
:1010500094010E94700869017A01B1E0CB1AD108AD
:10106000E108F108EFEFCE16D104E104F104B9F084
:10107000B0F0D301C2015AE0B595A7959795879531
:101080005A95D1F76C017D01E1E0CE1AD108E10853
:10109000F108F985FF2309F4C5CE87E0F8CE86E094
:1010A000ADCEFFEFCF16D104E104F10409F058F6FC
:1010B00084E0A4CE82E0EBCE97FB072E16F40094DA
:1010C00007D077FD09D00E94960807FC05D03EF4B2
:1010D000909581959F4F0895709561957F4F0895E4
:1010E000052E97FB1EF400940E94870857FD07D039
:1010F0000E94E60907FC03D04EF40C948708509533
:101100004095309521953F4F4F4F5F4F08959095F3
:101110008095709561957F4F8F4F9F4F08950E94E6
:10112000080AB7FF0895821B930B0895AA1BBB1BE7
:1011300051E107C0AA1FBB1FA617B70710F0A61BD7
:10114000B70B881F991F5A95A9F780959095BC01F8
:10115000CD010895EE0FFF1F0590F491E02D099445
:101160000E94B7086894B1110C94E00908950E9498
:10117000C50988F09F5798F0B92F9927B751B0F05B
:10118000E1F0660F771F881F991F1AF0BA95C9F70B
:1011900014C0B13091F00E94DF09B1E008950C94C1
:1011A000DF09672F782F8827B85F39F0B93FCCF374
:1011B000869577956795B395D9F73EF49095809588
:1011C000709561957F4F8F4F9F4F089581E090E01C
:1011D000F8940C94170AE89409C097FB3EF4909594
:1011E0008095709561957F4F8F4F9F4F9923A9F000
:1011F000F92F96E9BB279395F6958795779567958F
:10120000B795F111F8CFFAF4BB0F11F460FF1BC0D2
:101210006F5F7F4F8F4F9F4F16C0882311F096E965
:1012200011C0772321F09EE8872F762F05C0662313
:1012300071F096E8862F70E060E02AF09A95660FCC
:10124000771F881FDAF7880F9695879597F9089585
:101250000E943B090C94AC090E949E0938F00E9440
:10126000A50920F0952311F00C9495090C949B0985
:1012700011240C94E0090E94BD0970F3959FC1F3FD
:10128000950F50E0551F629FF001729FBB27F00D34
:10129000B11D639FAA27F00DB11DAA1F649F662789
:1012A000B00DA11D661F829F2227B00DA11D621FD8
:1012B000739FB00DA11D621F839FA00D611D221F92
:1012C000749F3327A00D611D231F849F600D211D76
:1012D000822F762F6A2F11249F5750409AF0F1F0F9
:1012E00088234AF0EE0FFF1FBB1F661F771F881F62
:1012F00091505040A9F79E3F510580F00C949509FC
:101300000C94E0095F3FE4F3983ED4F3869577951B
:101310006795B795F795E7959F5FC1F7FE2B880F07
:10132000911D9695879597F9089597F99F6780E89D
:1013300070E060E008959FEF80EC089500240A9427
:101340001616170618060906089500240A941216A0
:101350001306140605060895092E0394000C11F4D3
:10136000882352F0BB0F40F4BF2B11F460FF04C080
:101370006F5F7F4F8F4F9F4F089557FD9058440FD9
:10138000551F59F05F3F71F04795880F97FB991FE4
:1013900061F09F3F79F087950895121613061406A1
:1013A000551FF2CF4695F1DF08C01616170618062E
:1013B000991FF1CF86957105610508940895E89409
:1013C000BB2766277727CB0197F90895A1E21A2E4C
:1013D000AA1BBB1BFD010DC0AA1FBB1FEE1FFF1FD9
:1013E000A217B307E407F50720F0A21BB30BE40B29
:1013F000F50B661F771F881F991F1A9469F7609570
:101400007095809590959B01AC01BD01CF01089529
:10141000A29FB001B39FC001A39F700D811D112435
:10142000911DB29F700D811D1124911D0895F89496
:02143000FFCFEC
:10143200FF880188010B0288014A014A0188017074
:1014420003A4030B029302BA020B0270030B025DA8
:1014520001720170034B02E402E006E40210034B46
:1014620002DC034B02BA0293020B0288010B024B0D
:10147200029302BA022A023F032A02BA02E4020BD0
:101482000270034B02E4023F0393022A023F03E08D
:10149200061003BA0293024B020B02DC037003DC58
:1014A200034B0293024B020B02DC037003DC030BBF
:1014B20002DC03700388015D018801700388015D0D
:1014C200014A015D0170039F014A015D014A019FCA
:1014D200014A017003000004000800080008000827
:1014E20000080008000800080008000800040008BE
:1014F20000080008000800080008000800080008AA
:10150200000800040008000800080008000800089D
:10151200000800080008000800040008000800088D
:101522000008000400080008000800080004000881
:101532000008000800080008000800080008000869
:10154200000800080008000300080008000800085E
:101552000008000800080008000800080008000849
:101562000008000800080008000800080008000839
:101572000008000800080008000800080002000037
:101582000000007B01F700440122013601C201562E
:101592004D4450565F317C315F564D4450560D0AD2
:1015A20000564D4450455F003A323A007C005F5687
:0615B2004D44504500000D
:00000001FF
